TD0GYWM4MG70SPLT0000005616229DE73336820605910425754Eva Fischer                  
5OVXAE24SIQ0C42N0000007988541DE35869192773014008364Nora Becker                  
H5MDDFAX8P67K3MG0000003924654DE63122364852479501179Sara Schneider               
HVCV9T3KPV6R99990000001245337DE60370245430322769526Eva Neumann                  
HZ3OJHJPN9ESBVMA0000000733120DE41432142995606443389Quirin Wolf                  
86QJQH8SMCA5NTDJ0000007053562DE49347304309867074716David Schwarz                
YHV45GYLZIV7UADI0000009528803DE11079218481424750295Iris Schwarz                 
NQQPCM4QCVQFGU5Q0000001131176DE22946123522014923679Greta Fischer                
1XIQNLV80PO10NQF0000002332635DE46591923776737849919Greta Braun                  
DO8TB7KK7XJKP02T0000003329382DE97842222938993408413Sara Braun                   
5TBV365D0UDJ7DDM0000001803648DE08544714748173608039Iris Richter                 
2S64UFQENWW66RZ80000000692123DE08814117137545334993Nora Weber                   
CKAX7R15NH7Y1Q4L0000002142504DE21169179100184408064Anna Wolf                    
16IGOHB3QGKUHPBP0000007720687DE80595759320146877342Hans Becker                  
AZF6KMD0PRKNDDJ90000004002239DE16899924705054082859Sara Weber                   
O2P7WSHYM8GBOH910000001225407DE24383717487225599327Clara Schneider              
N91LTZU1HAVVU5P10000001257270DE72342171968597135416Ben Krueger                  
5HTKS369YX724J570000006364292DE97234225390978324680Oskar Becker                 
VAG0JMB8P9GBHZXV0000000500401DE56914111784062738072Klara Neumann                
5JTJHDIWOO85PRJ60000002284931DE55187697882315200655Nora Schmidt                 
I089923USYV3OSOS0000000401970DE96315657494084169414Greta Krueger                
HT9WEYFD9E0SRLJW0000009389344DE65835666949460260180Mika Schmidt                 
I3YU44Y87N317XKQ0000007915577DE83004405365053025314Anna Wagner                  
8RZ4K31G77I8UMMK0000006738957DE57863672547382811530Paul Schmidt                 
QG9ZZV8KAW004VHY0000002689152DE79316330263136037275Ben Weber                    
SOW8KM1E6KV60RWJ0000008880087DE35755844127647117299Greta Krueger                
WNGWLFAQB1APN81N0000003827598DE48679450201057237698Clara Koch                   
14PN0ZD2ZFAWBH470000007473434DE96667056769538282005Timo Bauer                   
7Z8X58KYV1MTPTLY0000008406530DE77284009195335169595Felix Zimmermann             
MKYG24KQMFTE05DD0000000910560DE51194544567126987265Hans Braun                   
OUH3QR0MSARCXSF80000002653523DE48251863207946539282Rieke Hoffmann               
KQF1LE00OURVQ5MJ0000007974132DE91767078116011843322Greta Wolf                   
RHOFTFN4GZKML9QA0000001256697DE33411478641048379411Anna Weber                   
DIRJZZNIUIS2P6G90000007220067DE71814177665780276007Quirin Wolf                  
LQTYMWJQEZBD7R180000005725294DE48184218656231510880Hans Weber                   
YDL7TH4JNIY4NQU30000009873708DE20476815970347219749Hans Weber                   
C0HUIPPTSJ9Z1MJO0000008697586DE98262227969956076939Mika Fischer                 
WP2R3KEODOMH90AZ0000002291344DE18411527264548821391Paul Bauer                   
FW5K71TF88AIBL8S0000006741318DE51042832216147880395Jonas Bauer                  
IUK06C5K7GJEI5UJ0000008601290DE44888767448553244754Nora Schroeder               
WC8JZZIUD9VSI1980000000218777DE48602510146382311477Felix Zimmermann             
M5JG5S49IWLH2BVN0000002837210DE17251974293231859325Ben Schmidt                  
V3PM28WOGODPSITL0000003773345DE69188802687858656945Clara Klein                  
JPCT1539SWBZ08X10000009668106DE21958192607236009014Felix Schwarz                
PNVWD84TQ2WOJCJH0000004060561DE69731365176217151952Rieke Schmidt                
Y50QELDNFA5FN64A0000002215584DE56509882691806972324Klara Zimmermann             
OV572RZMIUNV0QWE0000009090535DE32766560382435460919Oskar Hoffmann               
FPLMS6UEDA897UIM0000001748365DE44992318074645993563Rieke Braun                  
P872CMXLBADC7Z9Q0000009897816DE37649506478427445085Lena Bauer                   
MM9NXUXT3RT8250G0000002088290DE23544207350423372472Iris Weber                   
FGDUCZ8HWA40X1110000005465521DE26536363649348509127Quirin Zimmermann            
25VP278LOW4FN5790000000584248DE81572560161976517061Timo Schroeder               
2XTX7M6J5CWWJXJ20000005811209DE61427906991142261451Eva Hoffmann                 
KWM3GW1F3XRI3XOR0000004830989DE39044296773152994172Nora Schmidt                 
HLFH49P66TBFQPKZ0000000633831DE02067128350918454837Felix Schaefer               
W32UDPORWAE7O5ND0000007645353DE33684982561229895375Iris Krueger                 
88QUKK0OH1H2IGQW0000002448157DE95262262791809969904Anna Wagner                  
YF97FH4D5ZGBP9430000006859708DE17065788932191185691Jonas Zimmermann             
HJP6NSW0LAD1N1NY0000004399240DE26657558436288211309Hans Braun                   
HWB5NYNUV660OAGX0000007944455DE73258630666167699542Quirin Wagner                
I4UQE544202QDNWN0000008427491DE57895197209138176703Timo Richter                 
1WV7KHJU5WI6MXNK0000005763287DE50525535978811626671Quirin Wagner                
WGJ8Y4CLRNL1AZW20000009080342DE23787094353367007466Klara Koch                   
8IEU7LOJ6COKUUDD0000000042641DE28852796253372721262Sara Schroeder               
OX7SJGBR0LDQ196I0000000768726DE66646144565331982546Jonas Braun                  
7XPPN28NZ9FW5BAR0000007881715DE23355952735855173764Nora Wagner                  
J7P9G8G1Z28I0GX90000009944831DE78756371701379071396Oskar Schroeder              
HPUUPHNV1QMLL0O20000008143144DE54892919552689123565Hans Neumann                 
OPKKKNJJ7RY3FIW40000004824193DE08503542829446968617Ben Mueller                  
VC8AYI7KWRKUKLZR0000004677529DE38171481229259734387Mika Schmidt                 
YXO73JCDF0WNGVZD0000004412360DE23268771312104149608Jonas Fischer                
2T6ROTFRCG7GDYIK0000008593183DE30329274095169045678Anna Krueger                 
FDDVA28LCGJR1GIF0000002376820DE31596915308165240259Nora Bauer                   
34XSEC1ZYY9QC3JC0000007405032DE15682412831034052418Iris Krueger                 
29V0TSJV6G4ZTPQL0000005094348DE33539439717806175332Hans Schwarz                 
RI5IMFEMAB6JGF260000005211249DE07467650019260546464Anna Neumann                 
5VRROGHASSZ90S410000004240263DE65448174139541843782Eva Bauer                    
H7PFQ9H9ZE6RTBIP0000005684122DE77809823682160651866Iris Richter                 
MFH07990ZVW6KV7C0000007389653DE44504688202319633649Nora Bauer                   
RGJ3GKA8SCIWXG4B0000007322299DE32501649802713215554Sara Mueller                 
WGK3XPVQQAH8T9YU0000006332098DE90235063548162575531Klara Koch                   
LKXFQWT7OY7NYGVM0000006572086DE64125766468678445444Timo Schwarz                 
BUWKRLDYOFYE69UQ0000006936760DE09032272329672065144David Mueller                
ZCIWHYOY5ITBZX9N0000000465746DE26009739263580984077Timo Braun                   
PNY5U7FP09BMG5JI0000007017222DE54006405385505120435Jonas Bauer                  
NQF8XHTRQZO99Y490000000930068DE71155179133986159978Hans Neumann                 
ISX7H75ZIWFTIRO70000006994680DE14213360211721383543Paul Mueller                 
FEYATYOULJSJQE9S0000001905140DE94041436441502040077Timo Neumann                 
UHJNY4WSWD7ZDZ710000004459207DE82766115064808729487Paul Mueller                 
941CMM1V9ECWZ4C50000003123506DE90794849098602880768Timo Schneider               
NM1QJX88ZFSOSYQ80000000122730DE33971256125690295972Sara Braun                   
GYHIYHYZ4KBWZXY00000006063854DE25726182081956542999Nora Bauer                   
Q94GTQH2PRYQJWER0000009231067DE91605836379348341196Felix Schmidt                
UOXU6HFISYH3P1TN0000005081109DE93855535872552091830David Klein                  
V9A5CEX6EAX1O8JV0000005014687DE15995326082877872942Hans Krueger                 
ZVNVGRG3VB4QY9BW0000005811406DE17121959693614125736Anna Krueger                 
KAWVSHR27TACU6190000008579135DE29729432084068357935Quirin Mueller               
536FI27346URIF060000005835821DE10474788909679326223Hans Wagner                  
7A7LH46EW41HCEM00000000123593DE74603772569436872463David Wagner                 
AB054GC16WNESLVT0000000270899DE26272180388942481768Quirin Schneider             
